{
  "_format": "hh-sol-artifact-1",
  "contractName": "FinancialID",
  "sourceName": "contracts/FinancialID.sol",
  "abi": [
    {
      "inputs": [],
      "stateMutability": "nonpayable",
      "type": "constructor"
    },
    {
      "anonymous": false,
      "inputs": [
        {
          "indexed": true,
          "internalType": "address",
          "name": "approver",
          "type": "address"
        }
      ],
      "name": "ApproverAdded",
      "type": "event"
    },
    {
      "anonymous": false,
      "inputs": [
        {
          "indexed": true,
          "internalType": "address",
          "name": "approver",
          "type": "address"
        }
      ],
      "name": "ApproverRemoved",
      "type": "event"
    },
    {
      "anonymous": false,
      "inputs": [
        {
          "indexed": true,
          "internalType": "uint256",
          "name": "id",
          "type": "uint256"
        },
        {
          "indexed": false,
          "internalType": "uint256",
          "name": "trustScore",
          "type": "uint256"
        }
      ],
      "name": "TrustScoreUpdated",
      "type": "event"
    },
    {
      "anonymous": false,
      "inputs": [
        {
          "indexed": true,
          "internalType": "uint256",
          "name": "id",
          "type": "uint256"
        },
        {
          "indexed": true,
          "internalType": "address",
          "name": "wallet",
          "type": "address"
        },
        {
          "indexed": false,
          "internalType": "string",
          "name": "cid",
          "type": "string"
        },
        {
          "indexed": false,
          "internalType": "uint256",
          "name": "trustScore",
          "type": "uint256"
        }
      ],
      "name": "UserCreated",
      "type": "event"
    },
    {
      "inputs": [
        {
          "internalType": "address",
          "name": "_a",
          "type": "address"
        }
      ],
      "name": "addApprover",
      "outputs": [],
      "stateMutability": "nonpayable",
      "type": "function"
    },
    {
      "inputs": [
        {
          "internalType": "address",
          "name": "",
          "type": "address"
        }
      ],
      "name": "approver",
      "outputs": [
        {
          "internalType": "bool",
          "name": "",
          "type": "bool"
        }
      ],
      "stateMutability": "view",
      "type": "function"
    },
    {
      "inputs": [
        {
          "internalType": "address",
          "name": "_wallet",
          "type": "address"
        },
        {
          "internalType": "string",
          "name": "_name",
          "type": "string"
        },
        {
          "internalType": "string",
          "name": "_cid",
          "type": "string"
        },
        {
          "internalType": "uint256",
          "name": "_trustScore",
          "type": "uint256"
        }
      ],
      "name": "createUser",
      "outputs": [
        {
          "internalType": "uint256",
          "name": "",
          "type": "uint256"
        }
      ],
      "stateMutability": "nonpayable",
      "type": "function"
    },
    {
      "inputs": [
        {
          "internalType": "address",
          "name": "_wallet",
          "type": "address"
        }
      ],
      "name": "getUserByWallet",
      "outputs": [
        {
          "components": [
            {
              "internalType": "string",
              "name": "name",
              "type": "string"
            },
            {
              "internalType": "address",
              "name": "wallet",
              "type": "address"
            },
            {
              "internalType": "string",
              "name": "cid",
              "type": "string"
            },
            {
              "internalType": "uint256",
              "name": "trustScore",
              "type": "uint256"
            },
            {
              "internalType": "uint256",
              "name": "createdAt",
              "type": "uint256"
            }
          ],
          "internalType": "struct FinancialID.User",
          "name": "",
          "type": "tuple"
        }
      ],
      "stateMutability": "view",
      "type": "function"
    },
    {
      "inputs": [],
      "name": "nextId",
      "outputs": [
        {
          "internalType": "uint256",
          "name": "",
          "type": "uint256"
        }
      ],
      "stateMutability": "view",
      "type": "function"
    },
    {
      "inputs": [],
      "name": "owner",
      "outputs": [
        {
          "internalType": "address",
          "name": "",
          "type": "address"
        }
      ],
      "stateMutability": "view",
      "type": "function"
    },
    {
      "inputs": [
        {
          "internalType": "address",
          "name": "_a",
          "type": "address"
        }
      ],
      "name": "removeApprover",
      "outputs": [],
      "stateMutability": "nonpayable",
      "type": "function"
    },
    {
      "inputs": [
        {
          "internalType": "uint256",
          "name": "_id",
          "type": "uint256"
        },
        {
          "internalType": "uint256",
          "name": "_trustScore",
          "type": "uint256"
        }
      ],
      "name": "updateTrustScore",
      "outputs": [],
      "stateMutability": "nonpayable",
      "type": "function"
    },
    {
      "inputs": [
        {
          "internalType": "uint256",
          "name": "",
          "type": "uint256"
        }
      ],
      "name": "users",
      "outputs": [
        {
          "internalType": "string",
          "name": "name",
          "type": "string"
        },
        {
          "internalType": "address",
          "name": "wallet",
          "type": "address"
        },
        {
          "internalType": "string",
          "name": "cid",
          "type": "string"
        },
        {
          "internalType": "uint256",
          "name": "trustScore",
          "type": "uint256"
        },
        {
          "internalType": "uint256",
          "name": "createdAt",
          "type": "uint256"
        }
      ],
      "stateMutability": "view",
      "type": "function"
    },
    {
      "inputs": [
        {
          "internalType": "address",
          "name": "",
          "type": "address"
        }
      ],
      "name": "walletToId",
      "outputs": [
        {
          "internalType": "uint256",
          "name": "",
          "type": "uint256"
        }
      ],
      "stateMutability": "view",
      "type": "function"
    }
  ],
  "bytecode": "0x60806040526001805534801561001457600080fd5b50336000806101000a81548173ffffffffffffffffffffffffffffffffffffffff021916908373ffffffffffffffffffffffffffffffffffffffff1602179055506001600460003373ffffffffffffffffffffffffffffffffffffffff1673ffffffffffffffffffffffffffffffffffffffff16815260200190815260200160002060006101000a81548160ff02191690831515021790555061184c806100bc6000396000f3fe608060405234801561001057600080fd5b506004361061009e5760003560e01c806361b8ce8c1161006657806361b8ce8c146101835780636bf1e98c146101a15780636cf4c88f146101d15780638da5cb5b146101ed578063b646c1941461020b5761009e565b806302193cc3146100a35780632ef68f46146100bf578063365b98b2146100ef5780633b0328be146101235780633f131d9f14610153575b600080fd5b6100bd60048036038101906100b89190610d82565b610227565b005b6100d960048036038101906100d49190610e85565b610361565b6040516100e69190610f3b565b60405180910390f35b61010960048036038101906101049190610f56565b61069a565b60405161011a959493929190611022565b60405180910390f35b61013d60048036038101906101389190611083565b610800565b60405161014a9190611195565b60405180910390f35b61016d60048036038101906101689190611083565b610a43565b60405161017a91906111d2565b60405180910390f35b61018b610a63565b6040516101989190610f3b565b60405180910390f35b6101bb60048036038101906101b69190611083565b610a69565b6040516101c89190610f3b565b60405180910390f35b6101eb60048036038101906101e69190611083565b610a81565b005b6101f5610bad565b60405161020291906111ed565b60405180910390f35b61022560048036038101906102209190611083565b610bd1565b005b60011515600460003373ffffffffffffffffffffffffffffffffffffffff1673ffffffffffffffffffffffffffffffffffffffff16815260200190815260200160002060009054906101000a900460ff161515146102ba576040517f08c379a00000000000000000000000000000000000000000000000000000000081526004016102b190611254565b60405180910390fd5b6000821180156102cb575060015482105b61030a576040517f08c379a0000000000000000000000000000000000000000000000000000000008152600401610301906112c0565b60405180910390fd5b806002600084815260200190815260200160002060030181905550817f20d456995c74d5114f87879b10c5214b9c28e11ea422eeb922cc2e755095669f826040516103559190610f3b565b60405180910390a25050565b600060011515600460003373ffffffffffffffffffffffffffffffffffffffff1673ffffffffffffffffffffffffffffffffffffffff16815260200190815260200160002060009054906101000a900460ff161515146103f6576040517f08c379a00000000000000000000000000000000000000000000000000000000081526004016103ed90611254565b60405180910390fd5b6000600360008973ffffffffffffffffffffffffffffffffffffffff1673ffffffffffffffffffffffffffffffffffffffff1681526020019081526020016000205414610478576040517f08c379a000000000000000000000000000000000000000000000000000000000815260040161046f9061132c565b60405180910390fd5b60006001600081548092919061048d9061137b565b9190505590506040518060a0016040528088888080601f016020809104026020016040519081016040528093929190818152602001838380828437600081840152601f19601f8201169050808301925050505050505081526020018973ffffffffffffffffffffffffffffffffffffffff16815260200186868080601f016020809104026020016040519081016040528093929190818152602001838380828437600081840152601f19601f8201169050808301925050505050505081526020018481526020014281525060026000838152602001908152602001600020600082015181600001908161058091906115fe565b5060208201518160010160006101000a81548173ffffffffffffffffffffffffffffffffffffffff021916908373ffffffffffffffffffffffffffffffffffffffff16021790555060408201518160020190816105dd91906115fe565b50606082015181600301556080820151816004015590505080600360008a73ffffffffffffffffffffffffffffffffffffffff1673ffffffffffffffffffffffffffffffffffffffff168152602001908152602001600020819055508773ffffffffffffffffffffffffffffffffffffffff16817fe8fb1fd016bbfbc3fa68dc7c66fc1a0bce1293b6b8f98640f096f5d6234d27fa8787876040516106849392919061170c565b60405180910390a3809150509695505050505050565b60026020528060005260406000206000915090508060000180546106bd90611421565b80601f01602080910402602001604051908101604052809291908181526020018280546106e990611421565b80156107365780601f1061070b57610100808354040283529160200191610736565b820191906000526020600020905b81548152906001019060200180831161071957829003601f168201915b5050505050908060010160009054906101000a900473ffffffffffffffffffffffffffffffffffffffff169080600201805461077190611421565b80601f016020809104026020016040519081016040528092919081815260200182805461079d90611421565b80156107ea5780601f106107bf576101008083540402835291602001916107ea565b820191906000526020600020905b8154815290600101906020018083116107cd57829003601f168201915b5050505050908060030154908060040154905085565b610808610cfd565b6000600360008473ffffffffffffffffffffffffffffffffffffffff1673ffffffffffffffffffffffffffffffffffffffff1681526020019081526020016000205490506000810361088f576040517f08c379a00000000000000000000000000000000000000000000000000000000081526004016108869061178a565b60405180910390fd5b600260008281526020019081526020016000206040518060a00160405290816000820180546108bd90611421565b80601f01602080910402602001604051908101604052809291908181526020018280546108e990611421565b80156109365780601f1061090b57610100808354040283529160200191610936565b820191906000526020600020905b81548152906001019060200180831161091957829003601f168201915b505050505081526020016001820160009054906101000a900473ffffffffffffffffffffffffffffffffffffffff1673ffffffffffffffffffffffffffffffffffffffff1673ffffffffffffffffffffffffffffffffffffffff1681526020016002820180546109a590611421565b80601f01602080910402602001604051908101604052809291908181526020018280546109d190611421565b8015610a1e5780601f106109f357610100808354040283529160200191610a1e565b820191906000526020600020905b815481529060010190602001808311610a0157829003601f168201915b5050505050815260200160038201548152602001600482015481525050915050919050565b60046020528060005260406000206000915054906101000a900460ff1681565b60015481565b60036020528060005260406000206000915090505481565b60008054906101000a900473ffffffffffffffffffffffffffffffffffffffff1673ffffffffffffffffffffffffffffffffffffffff163373ffffffffffffffffffffffffffffffffffffffff1614610b0f576040517f08c379a0000000000000000000000000000000000000000000000000000000008152600401610b06906117f6565b60405180910390fd5b6000600460008373ffffffffffffffffffffffffffffffffffffffff1673ffffffffffffffffffffffffffffffffffffffff16815260200190815260200160002060006101000a81548160ff0219169083151502179055508073ffffffffffffffffffffffffffffffffffffffff167fc6e35658c76ecdde40a54f31a91fb7c8615e9893cc0885584b27bb3433270d4660405160405180910390a250565b60008054906101000a900473ffffffffffffffffffffffffffffffffffffffff1681565b60008054906101000a900473ffffffffffffffffffffffffffffffffffffffff1673ffffffffffffffffffffffffffffffffffffffff163373ffffffffffffffffffffffffffffffffffffffff1614610c5f576040517f08c379a0000000000000000000000000000000000000000000000000000000008152600401610c56906117f6565b60405180910390fd5b6001600460008373ffffffffffffffffffffffffffffffffffffffff1673ffffffffffffffffffffffffffffffffffffffff16815260200190815260200160002060006101000a81548160ff0219169083151502179055508073ffffffffffffffffffffffffffffffffffffffff167f835bddf1ceee4956e4329af9edf018523c1191238187a597453f6020bcadb04260405160405180910390a250565b6040518060a0016040528060608152602001600073ffffffffffffffffffffffffffffffffffffffff1681526020016060815260200160008152602001600081525090565b600080fd5b600080fd5b6000819050919050565b610d5f81610d4c565b8114610d6a57600080fd5b50565b600081359050610d7c81610d56565b92915050565b60008060408385031215610d9957610d98610d42565b5b6000610da785828601610d6d565b9250506020610db885828601610d6d565b9150509250929050565b600073ffffffffffffffffffffffffffffffffffffffff82169050919050565b6000610ded82610dc2565b9050919050565b610dfd81610de2565b8114610e0857600080fd5b50565b600081359050610e1a81610df4565b92915050565b600080fd5b600080fd5b600080fd5b60008083601f840112610e4557610e44610e20565b5b8235905067ffffffffffffffff811115610e6257610e61610e25565b5b602083019150836001820283011115610e7e57610e7d610e2a565b5b9250929050565b60008060008060008060808789031215610ea257610ea1610d42565b5b6000610eb089828a01610e0b565b965050602087013567ffffffffffffffff811115610ed157610ed0610d47565b5b610edd89828a01610e2f565b9550955050604087013567ffffffffffffffff811115610f0057610eff610d47565b5b610f0c89828a01610e2f565b93509350506060610f1f89828a01610d6d565b9150509295509295509295565b610f3581610d4c565b82525050565b6000602082019050610f506000830184610f2c565b92915050565b600060208284031215610f6c57610f6b610d42565b5b6000610f7a84828501610d6d565b91505092915050565b600081519050919050565b600082825260208201905092915050565b60005b83811015610fbd578082015181840152602081019050610fa2565b60008484015250505050565b6000601f19601f8301169050919050565b6000610fe582610f83565b610fef8185610f8e565b9350610fff818560208601610f9f565b61100881610fc9565b840191505092915050565b61101c81610de2565b82525050565b600060a082019050818103600083015261103c8188610fda565b905061104b6020830187611013565b818103604083015261105d8186610fda565b905061106c6060830185610f2c565b6110796080830184610f2c565b9695505050505050565b60006020828403121561109957611098610d42565b5b60006110a784828501610e0b565b91505092915050565b600082825260208201905092915050565b60006110cc82610f83565b6110d681856110b0565b93506110e6818560208601610f9f565b6110ef81610fc9565b840191505092915050565b61110381610de2565b82525050565b61111281610d4c565b82525050565b600060a083016000830151848203600086015261113582826110c1565b915050602083015161114a60208601826110fa565b506040830151848203604086015261116282826110c1565b91505060608301516111776060860182611109565b50608083015161118a6080860182611109565b508091505092915050565b600060208201905081810360008301526111af8184611118565b905092915050565b60008115159050919050565b6111cc816111b7565b82525050565b60006020820190506111e760008301846111c3565b92915050565b60006020820190506112026000830184611013565b92915050565b7f4e6f7420617070726f7665720000000000000000000000000000000000000000600082015250565b600061123e600c83610f8e565b915061124982611208565b602082019050919050565b6000602082019050818103600083015261126d81611231565b9050919050565b7f496e76616c696420696400000000000000000000000000000000000000000000600082015250565b60006112aa600a83610f8e565b91506112b582611274565b602082019050919050565b600060208201905081810360008301526112d98161129d565b9050919050565b7f5573657220657869737473000000000000000000000000000000000000000000600082015250565b6000611316600b83610f8e565b9150611321826112e0565b602082019050919050565b6000602082019050818103600083015261134581611309565b9050919050565b7f4e487b7100000000000000000000000000000000000000000000000000000000600052601160045260246000fd5b600061138682610d4c565b91507fffffffffffffffffffffffffffffffffffffffffffffffffffffffffffffffff82036113b8576113b761134c565b5b600182019050919050565b7f4e487b7100000000000000000000000000000000000000000000000000000000600052604160045260246000fd5b7f4e487b7100000000000000000000000000000000000000000000000000000000600052602260045260246000fd5b6000600282049050600182168061143957607f821691505b60208210810361144c5761144b6113f2565b5b50919050565b60008190508160005260206000209050919050565b60006020601f8301049050919050565b600082821b905092915050565b6000600883026114b47fffffffffffffffffffffffffffffffffffffffffffffffffffffffffffffffff82611477565b6114be8683611477565b95508019841693508086168417925050509392505050565b6000819050919050565b60006114fb6114f66114f184610d4c565b6114d6565b610d4c565b9050919050565b6000819050919050565b611515836114e0565b61152961152182611502565b848454611484565b825550505050565b600090565b61153e611531565b61154981848461150c565b505050565b5b8181101561156d57611562600082611536565b60018101905061154f565b5050565b601f8211156115b25761158381611452565b61158c84611467565b8101602085101561159b578190505b6115af6115a785611467565b83018261154e565b50505b505050565b600082821c905092915050565b60006115d5600019846008026115b7565b1980831691505092915050565b60006115ee83836115c4565b9150826002028217905092915050565b61160782610f83565b67ffffffffffffffff8111156116205761161f6113c3565b5b61162a8254611421565b611635828285611571565b600060209050601f8311600181146116685760008415611656578287015190505b61166085826115e2565b8655506116c8565b601f19841661167686611452565b60005b8281101561169e57848901518255600182019150602085019450602081019050611679565b868310156116bb57848901516116b7601f8916826115c4565b8355505b6001600288020188555050505b505050505050565b82818337600083830152505050565b60006116eb8385610f8e565b93506116f88385846116d0565b61170183610fc9565b840190509392505050565b600060408201905081810360008301526117278185876116df565b90506117366020830184610f2c565b949350505050565b7f4e6f7420666f756e640000000000000000000000000000000000000000000000600082015250565b6000611774600983610f8e565b915061177f8261173e565b602082019050919050565b600060208201905081810360008301526117a381611767565b9050919050565b7f4e6f74206f776e65720000000000000000000000000000000000000000000000600082015250565b60006117e0600983610f8e565b91506117eb826117aa565b602082019050919050565b6000602082019050818103600083015261180f816117d3565b905091905056fea2646970667358221220be5f29452526626f02a3e3dddcb0615684f9f946b8feaa8f54ed4550c628f8b764736f6c63430008140033",
  "linkReferences": {},
  "deployedLinkReferences": {}
}